:020000040800F2
:10000000C01E0020A9010008251700081F140008C1
:1000100021170008E9020008ED2000080000000098
:10002000000000000000000000000000251900088A
:100030008511000800000000AD170008451B0008EE
:10004000C3010008C3010008C3010008C301000880
:10005000C3010008C3010008C3010008951100088E
:10006000C3010008C30100081D120008C3010008F5
:10007000C3010008C30100084D0E0008C3010008B9
:10008000C3010008810E0008C3010008C301000875
:10009000A5200008C3010008C3010008C30100082F
:1000A000C3010008C3010008C3010008C301000820
:1000B000051C0008C3010008C3010008C3010008B3
:1000C000C3010008C3010008C3010008C301000800
:1000D000C3010008FD1C0008911D0008C3010008B1
:1000E00087110008C3010008C301000800F002F8EE
:1000F00000F04AF80AA090E8000C82448344AAF178
:100100000107DA4501D100F03FF8AFF2090EBAE875
:100110000F0013F0010F18BFFB1A43F0010318473B
:1001200014240000342400000A4410F8014B14F099
:100130000F0508BF10F8015B240908BF10F8014B38
:100140006D1E05D010F8013B6D1E01F8013BF9D181
:10015000641E03D0641E01F8015BFBD19142E4D31D
:10016000704700000023002400250026103A28BF15
:1001700078C1FBD8520728BF30C148BF0B60704719
:100180001FB51FBD10B510BD00F07CF81146FFF77C
:10019000F7FF01F0F7FF00F09AF803B4FFF7F2FF62
:1001A00003BC01F0A5FF000009488047094800474B
:1001B000FEE7FEE7FEE7FEE7FEE7FEE7FEE7FEE717
:1001C000FEE7FEE704480549054A064B7047000074
:1001D000A51B0008ED000008C00A0020C01E00207A
:1001E000C00E0020C00E002070474FF0000204290E
:1001F000C0F0128010F0030C00F01B80CCF1040C56
:10020000BCF1020F18BF00F8012BA8BF20F8022B89
:10021000A1EB0C0100F00DB85FEAC17C24BF00F82F
:10022000012B00F8012B48BF00F8012B70474FF05D
:10023000000200B5134694469646203922BFA0E836
:100240000C50A0E80C50B1F12001BFF4F7AF090742
:1002500028BFA0E80C5048BF0CC05DF804EB890033
:1002600028BF40F8042B08BF704748BF20F8022B76
:1002700011F0804F18BF00F8012B7047704770478E
:1002800070477047754600F02BF8AE46050069468A
:10029000534620F00700854618B020B5FFF792FFBF
:1002A000BDE820404FF000064FF000074FF0000877
:1002B0004FF0000B21F00701AC46ACE8C009ACE8F8
:1002C000C009ACE8C009ACE8C0098D46704710B55C
:1002D0000446AFF300802046BDE81040FFF75DBF45
:1002E000004870475C0A002000BFFEE710B500F52B
:1002F000D87303EB01131B6803F004031372137A22
:1003000053B900F5D87303EB01131B6840F2FF7477
:1003100004EA5353136009E000F5D87303EB0113AB
:100320001B686FF0604404EAD303536000F5D87390
:1003300003EB01131B6803F00203537200F5D8733B
:1003400003EB01135B6803F00F03937200F5D8739E
:1003500003EB01135B681B0AD37400F5D87303EB3E
:1003600001139B68D37200F5D87303EB01139B68EC
:100370001C0A147300F5D87303EB01139B681C0C63
:10038000547300F5D87303EB01139B681B0E937332
:1003900000F5D87303EB0113DB68D37300F5D87352
:1003A00003EB0113DB681C0A147400F5D87303EB2C
:1003B0000113DB681C0C547400F5D87303EB0113B4
:1003C000DB681B0E937421B9C36843F02003C3603C
:1003D00003E0036943F02003036110BD10B502463A
:1003E0000020936803F08063B3F1806F00D110E0C8
:1003F000936803F00063B3F1006F01D1012008E0BE
:10040000936803F08053B3F1805F01D1022000E0D4
:100410000420042874D002F5C07303EB00131B689A
:1004200003F0010402F5C07303EB00131C600B7AA8
:100430007BB94B7A0C8843EA445302F5C07404EB51
:1004400000142468234302F5C07404EB00142360F5
:1004500010E00B7A4C6843EAC4034C7A234302F55C
:10046000C07404EB00142468234302F5C07404EB49
:10047000001423608B7A03F00F038B7202F5C073B4
:1004800003EB00135B6823F00F0402F5C07303EB6A
:1004900000135C6002F5C07303EB00135B688C7A99
:1004A000234302F5C07404EB001463608B7B1C06CD
:1004B0004B7B44EA03440B7B44EA0323CC7A23437B
:1004C00002F5C07404EB0014A3608B7C1C064B7C0B
:1004D00044EA03440B7C44EA0323CC7B234302F528
:1004E000C07404EB0014E36002F5C07303EB001367
:1004F0001B6843F0010402F5C07303EB00131C609A
:1005000010BD000010B50246002321B1012907D01B
:1005100002290FD109E090681D4C00EA04030BE0AA
:1005200090681C4C00EA040306E090681A4C00EA4C
:10053000040301E0002300BF00BF184C181BA342B6
:1005400016D007DC83B16FF08060184470B10228C8
:1005500018D111E0B0F5007F10D0114C204448B103
:10056000B0F5003F0ED10BE002230DE000230BE0BD
:10057000002309E0002307E0012305E0012303E055
:10058000012301E0002300BF00BFD8B210BD00006E
:10059000030000040003000800000310000100082D
:1005A0000001FFF710B5FE480068532816D1FD483A
:1005B000C079A0B9FB488078FA49497840EA01201F
:1005C000F9490880F7488079F8490870F54840797A
:1005D000F7490870F3480078F64908709FE0F14841
:1005E000C0790128FAD10421F34800F00BFF04017F
:1005F0004FF48041F04800F005FF44EAC0044FF496
:100600000041ED4800F0FEFE44EA80044FF4006132
:10061000EA4800F0F7FE44EA40044FF48051E7480E
:1006200000F0F0FE0443E0B2DE494978884238D158
:10063000DC480078032806D1E148007840F020002B
:10064000DF4908702DE0D7480078042806D1DC483F
:10065000007820F02000DA49087022E0D1480078C4
:1006600005281ED1D648007840F04000D4490870D3
:10067000CD480088401ED34908600020D249088038
:10068000D2490880D2490880D2490880D2490880DE
:10069000D2490880D2490880D24908800120D24935
:1006A0000870C04800790004BE49497940EA012039
:1006B000BC4989790843CD4908600421BE4800F04F
:1006C000A1FE04014FF48041BB4800F09BFE44EAC8
:1006D000C0044FF40041B84800F094FE44EA80049E
:1006E0004FF40061B54800F08DFE44EA40044FF439
:1006F0008051B24800F086FE2043401EBB49096885
:10070000C14001F0010050B1B948007820F0F0007C
:10071000B74908700846007840F020000870A048EB
:10072000006852287ED1B3480078B3490870B348B6
:100730000078B04908709B484078B04908709948E3
:10074000407800049749897840EA01209549C978A2
:100750000843AB49086093488079AA4908809148CA
:10076000C079A9490880A9480088A94908808D480E
:100770000078A64908808B480078A54909888842F6
:1007800004D0A4480088401CA24908809B480078F7
:10079000012813D10020944908708A4908609448C0
:1007A000007820F00F00924908700846007840F069
:1007B000020008700020984908601BE08F4800780C
:1007C000C0B900209549086095490880884800789C
:1007D00020F00F00864908700846007840F00200BB
:1007E0000870002080490870764908608D490880AB
:1007F0008D4908806F48007800287DD104216E481B
:1008000000F000FE04014FF480416B4800F0FAFD57
:1008100044EAC0044FF40041674800F0F3FD44EAA5
:10082000800400E0B4E24FF40061644800F0EAFDA7
:1008300044EA40044FF48051604800F0E3FD044373
:10084000E0B25A4909780844401E6F490988884235
:100850002CDC0421584800F0D5FD04014FF4804100
:10086000554800F0CFFD44EAC0044FF4004152481F
:1008700000F0C8FD44EA80044FF400614F4800F0E6
:10088000C1FD44EA40044FF480514C4800F0BAFDE9
:100890000443E0B2454909780844401C5A49098894
:1008A000884203DB01206149087038E00421424896
:1008B00000F0A8FD04014FF480413F4800F0A2FD84
:1008C00044EAC0044FF400413B4800F09BFD44EA79
:1008D00080044FF40061394800F094FD44EA40047C
:1008E0004FF48051354800F08DFD0443E0B22F49AC
:1008F00009780844801C00E0C0E043490988884228
:100900000DDA0020494908703948007820F00F00BE
:10091000374908700846007840F0030008703448F2
:10092000007800F00F00012805D03148007800F071
:100930000F0003287CD11B48807800F003000128B9
:10094000F8D104211C4800F05DFD04014FF4804102
:10095000194800F057FD44EAC0044FF4004116481E
:1009600000F050FD44EA80044FF40061134800F0A9
:1009700049FD44EA40044FF48051104800F042FD24
:100980000443E0B20749C9788842D3D10020224904
:100990000860044840790349097940EA012048E0A9
:1009A000340000203C010020CE000020D0000020B8
:1009B000D1000020D2000020000C014000080140BE
:1009C0006400002090000020540000205600002009
:1009D000580000205A0000205C0000205E0000202B
:1009E0006000002062000020980000208C000020A1
:1009F00087000020AB000020AA000020AC000020EF
:100A0000B40000209E000020A4000020C8000020A8
:100A1000CA000020CC0000209400002070000020BC
:100A2000740000209A0000209C0000209900002003
:100A3000E7E0EB490860EB48007820F00F00E94957
:100A400008700846007840F0020008700020E6496F
:100A500008700120E54908700020E5490880E54953
:100A60000880E5490880E5490880E5490880E549AE
:100A70000880E5490880E5490880C2E00421E4488F
:100A800000F0C0FC04014FF48041E14800F0BAFCE2
:100A900044EAC0044FF40041DD4800F0B3FC44EAEE
:100AA00080044FF40061DB4800F0ACFC44EA4004F1
:100AB0004FF48051D74800F0A5FC0443E0B2401D3C
:100AC000D549098888427DDC0421D14800F09AFC90
:100AD00004014FF48041CE4800F094FC44EAC00485
:100AE0004FF40041CA4800F08DFC44EA80044FF402
:100AF0000061C84800F086FC44EA40044FF480518D
:100B0000C44800F07FFC0443E0B2C44909780844BB
:100B1000C34909780844C01CBF490988884261DB81
:100B2000B048007800F00F00032805D0AD480078E9
:100B300000F00F00002855D1BA48807800F003007B
:100B400001284FD10421B24800F05CFC04014FF4AD
:100B50008041AF4800F056FC44EAC0044FF4004125
:100B6000AB4800F04FFC44EA80044FF40061A94810
:100B700000F048FC44EA40044FF48051A54800F0DE
:100B800041FC0443E0B2A749C97888422AD1002039
:100B9000A54908609348007820F00F00914908703B
:100BA0000846007840F0020008709E4841790079BC
:100BB00001EB00208A49086001208C490870002060
:100BC0008B4900E00EE008808A4908808A49088045
:100BD0008A4908808A4908808A4908808A490880A9
:100BE0008A4908809148007806280AD17D48007813
:100BF00020F00F007B4908700846007840F00300A1
:100C000008708848007800F00C0004280AD1754864
:100C1000007820F0F000734908700846007840F032
:100C20002000087004217A4800F0ECFB04014FF426
:100C30008041774800F0E6FB44EAC0044FF40041ED
:100C4000734800F0DFFB44EA80044FF40061714810
:100C500000F0D8FB44EA40044FF480516D4800F0A6
:100C6000D1FB0443E0B2401C6B49098888420BD198
:100C70005C48007820F0F0005A4908700846007877
:100C800040F01000087073E00421614800F0BAFBE6
:100C900004014FF480415E4800F0B4FB44EAC00414
:100CA0004FF400415A4800F0ADFB44EA80044FF491
:100CB0000061584800F0A6FB44EA40044FF480511C
:100CC000544800F09FFB0443E0B2801C524909885D
:100CD00088420BD14348007820F0F0004149087069
:100CE0000846007840F01000087041E004214848B0
:100CF00000F088FB04014FF48041454800F082FB7E
:100D000044EAC0044FF40041414800F07BFB44EA50
:100D100080044FF400613F4800F074FB44EA400453
:100D20004FF480513B4800F06DFB0443E0B23B4977
:100D300009780844401E38490988884218D10020A3
:100D40003B4908603B4908803B4908803B49088093
:100D500027490880274908802749088027490880B3
:100D600027490880274908802749088027490880A3
:100D70002E480078062832D11A48007820F0F0007A
:100D8000184908700846007840F02000087026E0F6
:100D90002B480068622822D122480078FA280DD119
:100DA00020484078012802D12649087017E01D48E4
:100DB0004078A0B900202349087010E01948007855
:100DC000FB280CD117484078012802D11E49087031
:100DD00005E01448407810B900201B49087010BD88
:100DE00090000020870000207C0000209800002058
:100DF0005400002056000020580000205A00002017
:100E00005C0000205E0000206000002062000020E6
:100E1000000C014000080140A4000020D000002088
:100E2000D10000203C01002094000020AC000020F4
:100E300070000020740000209C0000209A00002018
:100E400034000020400000204100002010B54FF485
:100E5000005000F0EFF868B14FF4005000F02AF8AD
:100E60000021054800F034F8012240F226610348D1
:100E700001F07DF810BD0000440002400038014040
:100E800010B54FF0007000F0D5F868B14FF0007069
:100E900000F010F80021054800F01AF8012240F295
:100EA0002661034801F063F810BD00008000024095
:100EB0000044004000F0805111B10349086001E096
:100EC00002494860704700000404024000000240EC
:100ED00021B1026842F00102026004E002684FF6AC
:100EE000FE731A400260704701684FF6FE721140AF
:100EF00001600021016041608160C1604B4988420E
:100F000008D14A490839496841F00F01474A083A6F
:100F100051608AE045491431884208D14349083973
:100F2000496841F0F001414A083A51607DE03F498B
:100F30002831884208D13D490839496841F4706137
:100F40003A4A083A516070E038493C31884208D149
:100F500036490839496841F47041344A083A5160C9
:100F600063E032495031884208D130490839496834
:100F700041F470212D4A083A516056E02B49643102
:100F8000884208D129490839496841F47001274A43
:100F9000083A516049E025497831884208D123490F
:100FA0000839496841F07061204A083A51603CE0D4
:100FB0001F49884206D1011F096841F00F01021F35
:100FC000116032E01A491431884208D11849091FCA
:100FD000096841F0F001164A121F116025E014491A
:100FE0002831884208D11249091F096841F470610B
:100FF0000F4A121F116018E00D493C31884208D198
:101000000B49091F096841F47041094A121F116018
:101010000BE007495031884207D10549091F09688B
:1010200041F47021024A121F11607047080002400B
:101030000804024001460020002201F0805313B151
:10104000054B1A6801E0054B1A6802EA01030BB16F
:10105000012000E000207047000402400000024030
:101060001AB103680B43036002E003688B4303601B
:10107000704710B50022026847F6F0739A430C6A75
:101080008B6823430C6923434C6923438C692343B6
:10109000CC6923434C6A23438C6A23431A4302607E
:1010A000CB6843600B6883604B68C36010BD000071
:1010B00000B58DB00121084600F07AFB2D48FFF7FE
:1010C00013FF2D4801902D4802900020039040F21C
:1010D0003240049000200590802006900020079068
:1010E000089009904FF440500A9000200B9001A9FD
:1010F0002048FFF7BEFF01211E48FFF7E9FE1D480B
:101100001430FFF7F1FE1C4801901D48029010209A
:10111000039000010490002005908020069000209C
:101120000790089009904FF400500A9000200B900F
:1011300001A910481430FFF79CFF012202210D483D
:101140001430FFF78DFF00210A481430FFF7C0FE6E
:1011500011208DF8300002208DF8310000208DF82C
:10116000320001208DF833000CA800F0DDFA0DB03C
:1011700000BD00006C000240044400402604002032
:1011800058080020704710B54FF4004000F04CF8AC
:1011900010BD000010B5022000F04CF860B31748F5
:1011A000007830BB022000F0C7FF1548006800BB84
:1011B00014480078E8B114480078D0B91348007892
:1011C000012816D11248007898B90E4800780128F5
:1011D0000FD010480078401C0E4908700E48007867
:1011E00020F00F000C4908700846007840F001001C
:1011F0000870022000F018F810BD0000D200002096
:1012000004012142AC00002064000020990000206D
:1012100098000020810000208700002010B51020D9
:1012200000F002F810BD000001490860704700009E
:1012300014040140014600200022074B1B6803EA0A
:101240000102054B14331B680B4013B10AB1012096
:1012500000E0002070470000000401402DE9F0414B
:10126000024600250026002000230024002791F8D4
:1012700003C00CF00F0591F803C00CF0100CBCF18A
:10128000000F03D091F802C04CEA050591F800C0A8
:10129000BCF1000F31D0146800202BE04FF0010C9E
:1012A0000CFA00F3B1F800C00CEA03069E4220D10C
:1012B00083004FF00F0C0CFA03F7BC4305FA03FC54
:1012C0004CEA040491F803C0BCF1280F06D14FF09A
:1012D000010C0CFA00FCC2F814C00AE091F803C03B
:1012E000BCF1480F05D14FF0010C0CFA00FCC2F81C
:1012F00010C0401C0828D1D31460B1F800C0BCF164
:10130000FF0F34DD546800202EE000F1080C4FF090
:10131000010808FA0CF3B1F800C00CEA03069E427B
:1013200021D183004FF00F0C0CFA03F7BC4305FAF0
:1013300003FC4CEA040491F803C0BCF1280F05D16A
:1013400000F1080C08FA0CF8C2F8148091F803C0F8
:10135000BCF1480F07D100F1080C4FF0010808FA62
:101360000CF8C2F81080401C0828CED35460BDE8A9
:10137000F0810000F0B50A4600230024002100257A
:1013800000F00046B6F1004F02D11D4EF16901E0B8
:101390001B4E7168C0F3034583B200F44016B6F5E6
:1013A000401F08D121F07061154E766826F07066F6
:1013B000134F7E6012E000F48016B6F5801F06D150
:1013C000032606FA05F4A14341F0706106E0460DDC
:1013D000360103FA06F6B14341F0706122B1460DC1
:1013E000360103FA06F6314300F00046B6F1004F2D
:1013F00002D1034EF16101E0014E7160F0BD0000C9
:10140000000001400246002093680B400BB1012010
:1014100000E000207047416170470161704700BFE4
:10142000FEE700000FB410B502987D281DD19DF88D
:101430001300012819D19DF81400B0B99DF81500CA
:1014400098B99DF8160080B99DF8170068B99DF805
:10145000180050B99DF8190038B99DF81A0020B944
:1014600002201649087000F067F802987F2822D100
:101470009DF8130001281ED19DF814101048006833
:10148000000E814217D19DF815000D490968C1F37E
:10149000074188420FD19DF8160009490988C1F318
:1014A0000721884207D19DF817000549097888422D
:1014B00001D100F023FF10BC5DF814FB41000020B7
:1014C0003C0000202DE9F04186B0054688461646CE
:1014D00000240195029500208DF80C008DF80D0078
:1014E0008DF80E6000BF06E018F804100DF10F0033
:1014F0000155601C84B2B442F6DB01A90D48FEF729
:101500006DFF0746002401E0601C84B2394609489B
:10151000FEF7F8FF012803D040F6FF708442F3DBAA
:1015200040F6FF70844203DB012006B0BDE8F08185
:101530000020FAE70064004008B5022001230622DB
:10154000812100907B2000F00DFA08BD08B5012133
:10155000032000F02DF901215C48FFF70BFF01216A
:10156000480200F055F901211D2000F051F920201A
:10157000ADF8000004208DF8030003208DF8020070
:1015800069465348FFF76AFE20215148FFF745FF9F
:101590000220ADF8000004208DF8030003208DF830
:1015A000020069464A48FFF759FE02214848FFF702
:1015B00034FF1020ADF8000003208DF80200102049
:1015C0008DF8030069464348FFF748FE1021414863
:1015D000FFF723FF2020ADF8000003208DF8020064
:1015E00010208DF8030069463A48FFF737FE2021A6
:1015F0003848FFF710FF4020ADF8000003208DF8B9
:10160000020010208DF8030069463248FFF726FEDD
:1016100040213048FFF701FF4FF48070ADF8000023
:1016200003208DF8020010208DF803006946294838
:10163000FFF714FE4FF480712648FFF7EEFE4FF4DB
:101640008040ADF8000003208DF8020010208DF8D6
:10165000030069461F48FFF701FE4FF480411D4813
:10166000FFF7DBFE4FF40040ADF8000003208DF8DB
:10167000020010208DF8030069461648FFF7EEFDC2
:101680004FF400411348FFF7C6FE4FF48050ADF809
:10169000000010208DF8030003208DF80200694639
:1016A0000B48FFF7DBFD4FF480510948FFF7B5FE0B
:1016B00001210648FFF75EFE0121082000F0A8F88E
:1016C0000121042000F0A4F808BD00000002300051
:1016D00000080140000C014010B5044614B101207F
:1016E0000D4908700C48007868B10C48006850B982
:1016F0000A2000F021FD0020074908700748006813
:1017000038B9012010BD05480068012801D10249FF
:1017100008700020F6E700002E000020140121428E
:1017200000BFFEE77047000070B5002100230F22C4
:10173000C47804B3154C246804F4E064C4F5E06490
:10174000210AC1F10403CA40447804FA03F1847801
:101750001440214309010E4C0678A155047804F089
:101760001F050124AC4005786D11AD0005F1E025A1
:10177000C5F8004109E0047804F01F050124AC40DD
:10178000044D0678761145F8264070BD0CED00E05A
:1017900000E400E080E100E002490143024A1160F8
:1017A000704700000000FA050CED00E070470000F3
:1017B00029B1064A52690243044B5A6104E0034AC4
:1017C00052698243014B5A61704700000010024089
:1017D00029B1064AD2690243044BDA6104E0034AA4
:1017E000D2698243014BDA61704700000010024069
:1017F00029B1064A12690243044B1A6104E0034A04
:1018000012698243014B1A617047000000100240C8
:1018100029B1064A92690243044B9A6104E0034AE3
:1018200092698243014B9A617047000000100240A8
:1018300029B1064AD2680243044BDA6004E0034A45
:10184000D2688243014BDA6070470000001002400A
:1018500030B500210022002400232D4D6D6805F0D5
:101860000C0121B1042905D0082923D105E0294D17
:10187000056022E0274D05601FE0254D6D6805F4E9
:101880007012234D6D6805F48034022505EB9242F9
:101890001CB9214D554305600BE01D4D6D6805F4E5
:1018A00000351DB11C4D5543056002E0194D5543EF
:1018B000056002E0174D056000BF00BF144D6D6864
:1018C00005F0F0010909154D6B5C0568DD404560C8
:1018D0000F4D6D6805F4E061090A104D6B5C4568B9
:1018E000DD4085600A4D6D6805F46051C90A0B4DF5
:1018F0006B5C4568DD40C560054D6D6805F4404191
:10190000890B074D6B5CC568B5FBF3F5056130BD10
:101910000010024000127A0000093D00250100205D
:1019200035010020704700000FB40B4A0099116088
:101930009DF8081051B9002006E00DF10B01095C7B
:10194000064A1154411CC8B20828F6DB0121044A9A
:10195000117004B070470000340000203C010020EA
:10196000310000202DE9FC4107460C4615461E4675
:10197000DDF82080002000900190174800780128B1
:1019800003D1FF201549086003E01548007813498A
:1019900008608DF8004011480068000E8DF80100C5
:1019A0000E480068000C8DF802000C480088000A00
:1019B0008DF80300094800788DF804008DF8055073
:1019C0008DF806608DF80780082269463846FFF7D3
:1019D00079FDBDE8FC810000400000203C000020B3
:1019E0002400002010490A780978491C0E4B197010
:1019F0000E4988540978AA290AD00C4949785529F2
:101A000006D000211A4611700121094A1160704761
:101A100005490978052900DAF9E70021044A11602F
:101A2000014A117000BFF2E7240100206209002082
:101A3000B881214210B500F001F810BD0CB50020AE
:101A4000019000903348006840F4803031490860CC
:101A500000BF3048006800F4003000900198401C3E
:101A60000190009818B90198B0F5A06FF1D12948FC
:101A7000006800F4003010B10120009001E0002067
:101A800000900098012843D12348006840F01000DE
:101A9000214908600846006820F0030008600846F5
:101AA000006840F0020008601A4840681949486020
:101AB0000846406848600846406840F480604860D6
:101AC0000846406820F47C1048600846406840F4AE
:101AD000E81048600846006840F08070086000BF69
:101AE0000C48006800F000700028F9D009484068F0
:101AF00020F00300074948600846406840F00200B3
:101B0000486000BF0348406800F00C000828F9D185
:101B10000CBD00000010024000200240042808D143
:101B20004FF0E021096941F004014FF0E02211611A
:101B300007E04FF0E021096921F004014FF0E022B5
:101B40001161704714480088401C134908800846FA
:101B50000088B0F57A7F0FDB002008800F480088EE
:101B6000401C0E490880084600884FF6FF718842E5
:101B700002DB00200949088009480088401C084908
:101B800008800846008842F21071884202DB00207B
:101B90000349088070470000FC000020FE00002080
:101BA0000C00002010B51348006840F001001149F6
:101BB000086008464068104908400E4948600846D9
:101BC00000680E4908400B4908600846006820F488
:101BD000802008600846406820F4FE0048604FF40A
:101BE0001F008860FFF726FF4FF00060044908607F
:101BF00010BD0000001002400000FFF8FFFFF6FEDD
:101C000008ED00E010B500F0D7FA0121880700F0D8
:101C100001F810BDCA430282704721B1028842F028
:101C20000102028004E002884FF6FE731A4002802F
:101C3000704702460020138A0B400BB1012000E0E0
:101C4000002070471AB183890B43838102E08389A6
:101C50008B43838170470000002202881D4B98420D
:101C60000ED01D4B98420BD0B0F1804F08D01B4BCB
:101C7000984205D01A4B984202D01A4B984204D190
:101C80004FF68F731A404B881A43174B984207D070
:101C9000164B984204D04FF6FF431A40CB881A43A4
:101CA00002808B8883850B8803850A4B98420BD072
:101CB000094B984208D00E4B984205D00D4B9842E4
:101CC00002D00D4B984201D10B7A03860123838207
:101CD00070470000002C0140003401400004004027
:101CE00000080040000C00400010004000140040BC
:101CF00000400140004401400048014010B540F25E
:101D000025511F4800F009F930B31D4800F0C0F913
:101D1000C4B221461B4800F0C0F91B48008800F4FB
:101D20000040C8B91848008800F4804060B10A2C0F
:101D300003D000201449088020E01348008840F4B4
:101D400000401149088019E00D2C06D10E4800888A
:101D500040F480400C49088010E00B480088C0F334
:101D60000D000A490C5408480088401C06490880A8
:101D700008460088C72801DD0020088010BD00004B
:101D8000003801400044004010010020A001002064
:101D900010B540F22551244800F0BFF8002841D08A
:101DA000214800F075F9C4B22046FFF71BFE21461A
:101DB0001E4800F072F91E48008800F4004058BB2D
:101DC0001B48008800F4804060B10A2C03D000203A
:101DD0001749088020E01648008840F40040144964
:101DE000088019E00D2C06D11148008840F480408D
:101DF0000F49088010E00E480088C0F30D000D491F
:101E00000C540B480088401C09490880084600888B
:101E1000C72801DD00200880012240F22551024838
:101E200000F0A5F810BD000000440040003801405B
:101E300010010020A001002001F40072B2F5007F23
:101E400000D100BFCA430280704721B1828942F4A9
:101E50000052828104E082894DF6FF731A4082812C
:101E60007047000010B504462048844209D1012182
:101E70008803FFF7DDFC00214FF48040FFF7D8FC1A
:101E800032E01B48844209D101214804FFF7B0FC2D
:101E900000214FF40030FFF7ABFC25E015488442E9
:101EA00009D101218804FFF7A3FC00214FF4802011
:101EB000FFF79EFC18E01048844209D10121C804B4
:101EC000FFF796FC00214FF40020FFF791FC0BE098
:101ED0000A48844208D101210805FFF789FC002146
:101EE0004FF48010FFF784FC10BD00000038014063
:101EF0000044004000480040004C004000500040BA
:101F000002460020B1F5007F00D100BF13880B40CE
:101F10000BB1012000E00020704770B5024600249C
:101F200000230025002040F66A16B14200D100BF10
:101F3000C1F3421501F01F03012606FA03F3012D38
:101F400002D19689334006E0022D02D1168A334031
:101F500001E0968A33400C12012606FA04F4168832
:101F6000344013B10CB1012000E0002070BDF0B589
:101F70000346002400260025002040F66A17B942D7
:101F800000D100BF1846C1F3421401F01F0601271B
:101F900007FA06F5012C01D10C3004E0022C01D126
:101FA000103000E014301AB107682F43076002E0D8
:101FB0000768AF430760F0BD2DE9F04786B00546DE
:101FC0000E460024A24600BFA1460027B08900B1FA
:101FD00000BF2F462C8A4CF6FF700440F088044363
:101FE0002C82AC894EF6F3100440B0883189084346
:101FF000718908430443AC81AC8A4FF6FF4004402A
:10200000B0890443AC8201A8FFF722FC1F48874235
:1020100002D1DDF810A001E0DDF80CA0A88900F4E1
:10202000004040B10AEBCA0000EB0A1031684900D9
:10203000B0FBF1F807E00AEBCA0000EB0A103168C8
:102040008900B0FBF1F86420B8FBF0F0040120092E
:10205000642101FB1089A88900F4004040B13220BE
:1020600000EBC900B0FBF1F000F00700044308E00A
:10207000322000EB09106421B0FBF1F000F00F00FA
:1020800004432C8106B0BDE8F08700000038014011
:1020900001468888C0F308007047C1F308028280B7
:1020A0007047000000B587B002AA00210C48FEF777
:1020B0001DF90698009002A80FC8FFF7B3F906981B
:1020C000009002A80FC8FFF72FFCFEF76BFA012063
:1020D0000449087000200449088007B000BD0000D2
:1020E00000640040380000203A00002000BFFEE7F6
:1020F00000BF704710B56FF00400FFF70FFD0A48EE
:1021000000680A49B0FBF1F00949087008460078F8
:1021100000EB4001C1EBC0104FF6FF7101EAC000B7
:102120000449088010BD00001000002000127A0051
:10213000F8000020FA0000200146114A12884A43A4
:102140004FF0E0235A6100229A611A46126942F068
:1021500001021A6100BF4FF0E022106900F0010295
:102160001AB100F48032002AF5D04FF0E022126953
:1021700022F001024FF0E0231A6100229A617047B9
:10218000FA0000204FF4A060FFF706FBFFF7B2FF54
:10219000FFF7DCF94FF4E13000F068F94FF4E1307B
:1021A00000F008F940F2CF21632000F0C7F8FEF7F5
:1021B0007FFF00BFFEE7000010B501218807FFF791
:1021C00038FD01286FD14848006828B94748806920
:1021D000401C4649886102E0002044498861434828
:1021E000806942F6E06188420EDB002040490860C9
:1021F0003E48806943F2B061884205DD00203B49DA
:10220000886101203A4908603848C069401C374954
:10221000C8610846C069B0F57A6F16D3AA2035495F
:10222000087055204870012088705520C870AA2079
:10223000087105212F4800F0AFF800202B49C86134
:102240004FF480712B48FDF7D0FF0020FFF744FAD0
:10225000294908700846007810B1012841D105E0ED
:102260004FF480712348FDF7C0FF3BE02048AC38B5
:102270000068012818D1FE201E490870B22048705D
:1022800003208870FF20C87001200871487108463B
:10229000C0780979484017494979484015498871FB
:1022A000EF20C87118E01EE0FE2012490870B2202D
:1022B000487003208870FF20C87002200871012038
:1022C00048710846C078097948400A494979484028
:1022D00008498871EF20C8710821064800F05CF8B1
:1022E00000E000BF00BF10BDB8812142D80000202F
:1022F000B001214258080020000000204FF6FF7175
:1023000000E000BF081EA1F10101FAD1012080F315
:10231000138800BF00BF0748006800F4E060064A69
:102320001043001D034A1060BFF34F8F00BF00BF72
:10233000FEE700000CED00E00000FA057FB5054661
:102340000C4601210846FFF743FAADF80850ADF8F6
:1023500004400020ADF80A00ADF8060001A94FF0D6
:102360008040FFF779FC012211469007FFF76AFCD5
:1023700001218807FFF751FC1C208DF80000022086
:102380008DF8010003208DF8020001208DF8030074
:102390006846FFF7C9F97FBD70B505460E460024B3
:1023A00004E0285D00F0B2F8601C84B2B442F8DBAF
:1023B00070BD000010B586B0044601214804FFF747
:1023C00007FA01210420FFF723FA2648FFF74AFD08
:1023D0000420ADF8140003208DF8160018208DF8A5
:1023E000170005A92048FEF739FF0820ADF81400B2
:1023F00003208DF8160004208DF8170005A91A484F
:10240000FEF72CFF01940020ADF80800ADF80A009B
:10241000ADF80C00ADF810000C20ADF80E0001A9CD
:102420001048FFF7C9FD012240F225510D48FFF782
:102430009EFD01210B48FFF708FD4FF4E060FFF718
:10244000ABF926208DF8000003208DF801008DF8EF
:10245000020001208DF803006846FFF765F906B019
:1024600010BD0000004400400008014010B586B0D7
:102470000446012144F20400FFF7CAF94FF400704A
:10248000ADF8140003208DF8160018208DF8170001
:1024900005A91C48FEF7E2FE4FF48060ADF8140079
:1024A00004208DF8170005A91648FEF7D7FE252051
:1024B0008DF8000003208DF801008DF80200012046
:1024C0008DF803006846FFF72FF901940020ADF85E
:1024D0000800ADF80A00ADF80C00ADF810000C20B3
:1024E000ADF80E0001A90848FFF766FD012240F291
:1024F00025510548FFF73BFD01210348FFF7A5FCE7
:1025000006B010BD000801400038014010B5044677
:1025100021460748FFF7C1FD00BF80210448FFF7AF
:10252000EFFC0128F9D140210148FFF785FC10BDDF
:102530000044004054250008000000203C01000039
:10254000280100088C2500083C010020841D0000A3
:1025500064010008011294A24A04B90102030406AE
:10256000070809027301022D0F584D000C0B0100E2
:102570004D022701031B0101D26440110102030433
:0C25800001020304060708090204060813
:04000005080000ED02
:00000001FF
