:020000040800F2
:10000000C81F0020C90100085F1D0008B3170008C1
:100010005B1D000851060008012A000800000000CE
:10002000000000000000000000000000C91F0008E0
:10003000ED14000800000000391E00080D22000821
:10004000E3010008E3010008E3010008E301000800
:10005000E3010008E3010008E30100082915000896
:10006000E3010008E3010008B1150008E3010008FE
:10007000E3010008E3010008B5110008E3010008EE
:10008000E3010008E9110008E3010008E3010008AA
:10009000B9290008E3010008E3010008E3010008B2
:1000A000E3010008E3010008E3010008E3010008A0
:1000B000CD220008E3010008E3010008E301000885
:1000C000E3010008E3010008E3010008E301000880
:1000D000E30100080526000899260008E30100084E
:1000E0001D150008E3010008E301000800F002F814
:1000F00000F05AF80AA090E8000C82448344AAF168
:100100000107DA4501D100F04FF8AFF2090EBAE865
:100110000F0013F0010F18BFFB1A43F0010318473B
:1001200084380000A43800000A444FF0000C10F896
:10013000013B13F0070408BF10F8014B1D1108BF65
:1001400010F8015B641E05D010F8016B641E01F805
:10015000016BF9D113F0080F1EBF10F8014BAD1C55
:100160000C1B09D16D1E58BF01F801CBFAD505E073
:1001700014F8016B01F8016B6D1EF9D59142D6D3CD
:10018000704700000023002400250026103A28BFF5
:1001900078C1FBD8520728BF30C148BF0B607047F9
:1001A0001FB51FBD10B510BD00F07CF81146FFF75C
:1001B000F7FF02F0A5FC00F09AF803B4FFF7F2FF96
:1001C00003BC02F02DFC00000948804709480047A5
:1001D000FEE7FEE7FEE7FEE7FEE7FEE7FEE7FEE7F7
:1001E000FEE7FEE704480549054A064B7047000054
:1001F0006D220008ED000008C80B0020C81F002079
:10020000C80F0020C80F002070474FF000020429DB
:10021000C0F0128010F0030C00F01B80CCF1040C35
:10022000BCF1020F18BF00F8012BA8BF20F8022B69
:10023000A1EB0C0100F00DB85FEAC17C24BF00F80F
:10024000012B00F8012B48BF00F8012B70474FF03D
:10025000000200B5134694469646203922BFA0E816
:100260000C50A0E80C50B1F12001BFF4F7AF090722
:1002700028BFA0E80C5048BF0CC05DF804EB890013
:1002800028BF40F8042B08BF704748BF20F8022B56
:1002900011F0804F18BF00F8012B7047704770476E
:1002A00070477047754600F02BF8AE46050069466A
:1002B000534620F00700854618B020B5FFF792FF9F
:1002C000BDE820404FF000064FF000074FF0000857
:1002D0004FF0000B21F00701AC46ACE8C009ACE8D8
:1002E000C009ACE8C009ACE8C0098D46704710B53C
:1002F0000446AFF300802046BDE81040FFF75DBF25
:1003000000487047640B002021B1826842F001026E
:10031000826003E0826822F001028260704721B1AE
:10032000826842F48072826003E0826822F4807204
:100330008260704710B504461248844208D10121FA
:10034000401501F0C7FD0021601501F0C3FD17E065
:100350000D48844208D10121001501F0BBFD0021A8
:10036000201501F0B7FD0BE00848844208D10121B7
:10037000C80301F0AFFD00214FF4004001F0AAFDD9
:1003800010BD00000024014000280140003C014055
:10039000014600208A6802F004020AB1012000E050
:1003A00000207047014600208A6802F008020AB166
:1003B000012000E00020704730B5024600200023F5
:1003C00050680F4C20400D790C6844EA0524204306
:1003D000506090680B4C2040D1E902542C434D7979
:1003E00044EA450420439060D06A20F470000C7CFD
:1003F000641EE4B2234340EA0350D06230BD0000E3
:10040000FFFEF0FFFDF7F1FFF0B504460D460020BA
:100410000021092D11DDE068A5F10A0606EB46076B
:10042000072606FA07F18843A5F10A0606EB4606F9
:1004300003FA06F10843E0600CE0206905EB45078C
:10044000072606FA07F1884305EB450603FA06F18D
:1004500008432061072A0FDA606B561E06EB8607F9
:100460001F2606FA07F18843561E06EB860605FA94
:1004700006F10843606322E00D2A0FDA206BD61FD5
:1004800006EB86071F2606FA07F18843D61F06EB00
:10049000860605FA06F10843206310E0E06AA2F13F
:1004A0000D0606EB86071F2606FA07F18843A2F120
:1004B0000D0606EB860605FA06F10843E062F0BD7C
:1004C000816841F008018160704721B1826842F47F
:1004D000A002826003E0826822F4A002826070477A
:1004E000816841F0040181607047000030B1074924
:1004F000096841F40001054A116005E003490968F3
:1005000021F40001014A11607047000008240140F5
:1005100000B591B001214FF4047001F0CBFC4FF411
:10052000004001F08BFC0220ADF8400000208DF867
:10053000430010A9424801F05BF84248FFF7FAFE79
:1005400000214048FFF7E0FE00213F4800F074FE24
:1005500000213C48FFF7E3FE3A48FFF7EBFE3A483C
:1005600000F076FE0121480201F0A4FC01210846BA
:1005700001F070FC4FF4404001F060FC31484C3019
:100580000590324806900020079002200890002035
:10059000099080200A9040000B9080000C90202051
:1005A0000D9000020E9000200F9005A9264800F043
:1005B00014FF0020009001208DF804008DF8050044
:1005C0004FF4602002900020039002208DF810006C
:1005D00069461C48FFF7F0FE052301221146194821
:1005E000FFF712FF0523022211211648FFF70CFF27
:1005F00001211448FFF793FE01211248FFF784FE02
:100600001048FFF75DFF00BF0E48FFF7CBFE002844
:10061000FAD10C48FFF764FF00BF0A48FFF7B8FEA5
:100620000028FAD101210748FFF74FFF01210648B2
:1006300000F002FE0120FFF759FF11B000BD0000DD
:10064000000801400024014008000240E0020020B0
:1006500000BFFEE710B500F5D87303EB01131B686C
:1006600003F004031372137A53B900F5D87303EB44
:1006700001131B6840F2FF7404EA5353136009E04E
:1006800000F5D87303EB01131B686FF0604404EAB4
:10069000D303536000F5D87303EB01131B6803F019
:1006A0000203537200F5D87303EB01135B6803F088
:1006B0000F03937200F5D87303EB01135B681B0AF9
:1006C000D37400F5D87303EB01139B68D37200F564
:1006D000D87303EB01139B681C0A147300F5D873DD
:1006E00003EB01139B681C0C547300F5D87303EBE8
:1006F00001139B681B0E937300F5D87303EB011372
:10070000DB68D37300F5D87303EB0113DB681C0AB5
:10071000147400F5D87303EB0113DB681C0C5474DC
:1007200000F5D87303EB0113DB681B0E937421B93A
:10073000C36843F02003C36003E0036943F0200370
:10074000036110BD10B502460020936803F080637A
:10075000B3F1806F00D110E0936803F00063B3F150
:10076000006F01D1012008E0936803F08053B3F1DA
:10077000805F01D1022000E00420042874D002F53B
:10078000C07303EB00131B6803F0010402F5C07390
:1007900003EB00131C600B7A7BB94B7A0C8843EA9D
:1007A000445302F5C07404EB00142468234302F59B
:1007B000C07404EB0014236010E00B7A4C6843EA29
:1007C000C4034C7A234302F5C07404EB001424687C
:1007D000234302F5C07404EB001423608B7A03F00A
:1007E0000F038B7202F5C07303EB00135B6823F0F9
:1007F0000F0402F5C07303EB00135C6002F5C073D5
:1008000003EB00135B688C7A234302F5C07404EB9E
:10081000001463608B7B1C064B7B44EA03440B7B18
:1008200044EA0323CC7A234302F5C07404EB00149A
:10083000A3608B7C1C064B7C44EA03440B7C44EA9B
:100840000323CC7B234302F5C07404EB0014E36064
:1008500002F5C07303EB00131B6843F0010402F5BB
:10086000C07303EB00131C6010BD000010B50246FE
:10087000002321B1012907D002290FD109E0906896
:100880001D4C00EA04030BE090681C4C00EA0403D2
:1008900006E090681A4C00EA040301E0002300BF60
:1008A00000BF184C181BA34216D007DC83B16FF0B1
:1008B0008060184470B1022818D111E0B0F5007FB3
:1008C00010D0114C204448B1B0F5003F0ED10BE0E0
:1008D00002230DE000230BE0002309E0002307E0E2
:1008E000012305E0012303E0012301E0002300BF11
:1008F00000BFD8B210BD00000300000400030008D0
:1009000000000310000100080001FFF710B5FE48C9
:100910000068532816D1FD48C079A0B9FB488078FB
:10092000FA49497840EA0120F9490880F748807976
:10093000F8490870F5484079F7490870F34800789D
:10094000F64908709FE0F148C0790128FAD10421E6
:10095000F34800F021FF04014FF48041F04800F01B
:100960001BFF44EAC0044FF40041ED4800F014FFBF
:1009700044EA80044FF40061EA4800F00DFF44EAC5
:1009800040044FF48051E74800F006FF0443E0B212
:10099000DE494978884238D1DC480078032806D1FE
:1009A000E148007840F02000DF4908702DE0D7488A
:1009B0000078042806D1DC48007820F02000DA49CD
:1009C000087022E0D148007805281ED1D64800786A
:1009D00040F04000D4490870CD480088401ED349FB
:1009E00008600020D2490880D2490880D249088096
:1009F000D2490880D2490880D2490880D24908806B
:100A0000D24908800120D2490870C048007900040A
:100A1000BE49497940EA0120BC4989790843CD495A
:100A200008600421BE4800F0B7FE04014FF4804185
:100A3000BB4800F0B1FE44EAC0044FF40041B8489E
:100A400000F0AAFE44EA80044FF40061B54800F0CB
:100A5000A3FE44EA40044FF48051B24800F09CFEEB
:100A60002043401EBB490968C14001F0010050B15C
:100A7000B948007820F0F000B749087008460078BF
:100A800040F020000870A048006852287ED1B3488A
:100A90000078B3490870B3480078B04908709B48A3
:100AA0004078B0490870994840780004974989789F
:100AB00040EA01209549C9780843AB49086093484A
:100AC0008079AA4908809148C079A9490880A94835
:100AD0000088A94908808D480078A64908808B487D
:100AE0000078A5490988884204D0A4480088401CA1
:100AF000A24908809B480078012813D1002094491E
:100B000008708A4908609448007820F00F009249E4
:100B100008700846007840F00200087000209849EC
:100B200008601BE08F480078C0B900209549086034
:100B3000954908808848007820F00F0086490870A1
:100B40000846007840F002000870002080490870D4
:100B5000764908608D4908808D4908806F48007883
:100B600000287DD104216E4800F016FE04014FF4E8
:100B700080416B4800F010FE44EAC0044FF400418D
:100B8000674800F009FE44EA800400E0B4E24FF454
:100B90000061644800F000FE44EA40044FF48051D4
:100BA000604800F0F9FD0443E0B25A49097808446E
:100BB000401E6F49098888422CDC0421584800F007
:100BC000EBFD04014FF48041554800F0E5FD44EA97
:100BD000C0044FF40041524800F0DEFD44EA8004B6
:100BE0004FF400614F4800F0D7FD44EA40044FF451
:100BF00080514C4800F0D0FD0443E0B245490978EB
:100C00000844401C5A490988884203DB0120614995
:100C1000087038E00421424800F0BEFD04014FF4A2
:100C200080413F4800F0B8FD44EAC0044FF4004161
:100C30003B4800F0B1FD44EA80044FF400613948BC
:100C400000F0AAFD44EA40044FF48051354800F01A
:100C5000A3FD0443E0B22F4909780844801C00E05A
:100C6000C0E04349098888420DDA002049490870EC
:100C70003948007820F00F0037490870084600789E
:100C800040F0030008703448007800F00F0001289D
:100C900005D03148007800F00F0003287CD11B48B4
:100CA000807800F003000128F8D104211C4800F0EE
:100CB00073FD04014FF48041194800F06DFD44EAD2
:100CC000C0044FF40041164800F066FD44EA800479
:100CD0004FF40061134800F05FFD44EA40044FF414
:100CE0008051104800F058FD0443E0B20749C9782C
:100CF0008842D3D100202249086004484079034942
:100D0000097940EA012048E0340000203C0300203B
:100D1000C2020020C4020020C5020020C60200203A
:100D2000000C0140000801407400002084020020F3
:100D30006400002066000020680000206A00002097
:100D40006C0000206E000020700000207200002067
:100D50008C020020800200207B0200209F020020E5
:100D60009E020020A0020020A80200209202002083
:100D700098020020BC020020BE020020C002002019
:100D80008802002064020020680200208E020020F9
:100D9000900200208D020020E7E0EB490860EB485C
:100DA000007820F00F00E94908700846007840F00C
:100DB000020008700020E64908700120E54908702B
:100DC0000020E5490880E5490880E5490880E549B3
:100DD0000880E5490880E5490880E5490880E5493B
:100DE0000880C2E00421E44800F0D6FC04014FF47E
:100DF0008041E14800F0D0FC44EAC0044FF40041D7
:100E0000DD4800F0C9FC44EA80044FF40061DB488F
:100E100000F0C2FC44EA40044FF48051D74800F08F
:100E2000BBFC0443E0B2401DD549098888427DDC03
:100E30000421D14800F0B0FC04014FF48041CE48B9
:100E400000F0AAFC44EAC0044FF40041CA4800F094
:100E5000A3FC44EA80044FF40061C84800F09CFC05
:100E600044EA40044FF48051C44800F095FC044328
:100E7000E0B2C44909780844C34909780844C01C51
:100E8000BF490988884261DBB048007800F00F0054
:100E9000032805D0AD48007800F00F00002855D198
:100EA000BA48807800F0030001284FD10421B248ED
:100EB00000F072FC04014FF48041AF4800F06CFC7C
:100EC00044EAC0044FF40041AB4800F065FC44EA3A
:100ED00080044FF40061A94800F05EFC44EA40043D
:100EE0004FF48051A54800F057FC0443E0B2A749F5
:100EF000C97888422AD10020A54908609348007823
:100F000020F00F00914908700846007840F0020078
:100F100008709E484179007901EB00208A490860F9
:100F200001208C49087000208B4900E00EE0088009
:100F30008A4908808A4908808A4908808A49088045
:100F40008A4908808A4908808A490880914800783F
:100F500006280AD17D48007820F00F007B490870F0
:100F60000846007840F0030008708848007800F0D8
:100F70000C0004280AD17548007820F0F00073496D
:100F800008700846007840F02000087004217A4874
:100F900000F002FC04014FF48041774800F0FCFBB4
:100FA00044EAC0044FF40041734800F0F5FB44EA02
:100FB00080044FF40061714800F0EEFB44EA400405
:100FC0004FF480516D4800F0E7FB0443E0B2401C51
:100FD0006B49098888420BD15C48007820F0F0000A
:100FE0005A4908700846007840F01000087073E015
:100FF0000421614800F0D0FB04014FF480415E48B9
:1010000000F0CAFB44EAC0044FF400415A4800F023
:10101000C3FB44EA80044FF40061584800F0BCFB75
:1010200044EA40044FF48051544800F0B5FB0443B7
:10103000E0B2801C5249098888420BD143480078AD
:1010400020F0F000414908700846007840F0100098
:10105000087041E00421484800F09EFB04014FF471
:101060008041454800F098FB44EAC0044FF4004139
:10107000414800F091FB44EA80044FF400613F488E
:1010800000F08AFB44EA40044FF480513B4800F0F2
:1010900083FB0443E0B23B4909780844401E3849C9
:1010A0000988884218D100203B4908603B490880E4
:1010B0003B4908803B490880274908802749088028
:1010C0002749088027490880274908802749088040
:1010D00027490880274908802E480078062832D101
:1010E0001A48007820F0F000184908700846007887
:1010F00040F02000087026E02B480068622822D1CA
:1011000022480078FA280DD120484078012802D1E1
:101110002649087017E01D484078A0B900202349EF
:10112000087010E019480078FB280CD11748407867
:10113000012802D11E49087005E01448407810B912
:1011400000201B49087010BD840200207B02002093
:10115000700200208C020020640000206600002045
:10116000680000206A0000206C0000206E00002053
:101170007000002072000020000C014000080140B7
:1011800098020020C4020020C50200203C03002079
:1011900088020020A00200206402002068020020D3
:1011A000900200208E020020340000205000002019
:1011B0005100002010B54FF4005000F0EFF868B176
:1011C0004FF4005000F02AF80021054800F034F8F0
:1011D000012240F22661034801F053FB10BD0000DC
:1011E000440002400038014010B54FF0007000F09C
:1011F000D5F868B14FF0007000F010F800210548F4
:1012000000F01AF8012240F22661034801F039FB90
:1012100010BD0000800002400044004000F08051FA
:1012200011B10349086001E00249486070470000BD
:10123000040402400000024021B1026842F00102B1
:10124000026004E002684FF6FE731A4002607047C5
:1012500001684FF6FE72114001600021016041609B
:101260008160C1604B49884208D14A4908394968C0
:1012700041F00F01474A083A51608AE0454914316C
:10128000884208D143490839496841F0F001414A90
:10129000083A51607DE03F492831884208D13D49F4
:1012A0000839496841F470613A4A083A516070E07F
:1012B00038493C31884208D136490839496841F4F7
:1012C0007041344A083A516063E0324950318842F3
:1012D00008D130490839496841F470212D4A083A4B
:1012E000516056E02B496431884208D129490839B8
:1012F000496841F47001274A083A516049E025499C
:101300007831884208D123490839496841F0706131
:10131000204A083A51603CE01F49884206D1011F2B
:10132000096841F00F01021F116032E01A491431BF
:10133000884208D11849091F096841F0F001164A8E
:10134000121F116025E014492831884208D1124942
:10135000091F096841F470610F4A121F116018E0FB
:101360000D493C31884208D10B49091F096841F4F5
:101370007041094A121F11600BE007495031884241
:1013800007D10549091F096841F47021024A121F5B
:101390001160704708000240080402400146002026
:1013A000002201F0805313B1054B1A6801E0054B90
:1013B0001A6802EA01030BB1012000E00020704727
:1013C00000040240000002401AB103680B430360AE
:1013D00002E003688B430360704710B50022026887
:1013E00047F6F0739A430C6A8B6823430C692343D6
:1013F0004C6923438C692343CC6923434C6A2343C0
:101400008C6A23431A430260CB6843600B68836095
:101410004B68C36010BD000000B58DB001210846C7
:1014200000F018FD2D48FFF713FF2D4801902D48BF
:1014300002900020039040F232400490002005907A
:101440008020069000200790089009904FF44050AB
:101450000A9000200B9001A92048FFF7BEFF012150
:101460001E48FFF7E9FE1D481430FFF7F1FE1C4847
:1014700001901D480290102003900001049000206C
:1014800005908020069000200790089009904FF466
:1014900000500A9000200B9001A910481430FFF76B
:1014A0009CFF012202210D481430FFF78DFF00211F
:1014B0000A481430FFF7C0FE11208DF830000220DA
:1014C0008DF8310000208DF8320001208DF83300B6
:1014D0000CA800F045FC0DB000BD00006C000240FF
:1014E0000444004026060020580A002070470000EF
:1014F00010B5064B064C24781A5D064B064C247832
:10150000195D024B587800F01BFC10BD350200201D
:10151000790200203F0200207802002010B54FF42D
:10152000004000F04BF810BD10B5022000F04CF860
:1015300060B31748007830BB022001F095FA1548D7
:10154000006800BB14480078E8B114480078D0B9AE
:1015500013480078012816D11248007898B90E482F
:10156000007801280FD010480078401C0E49087000
:101570000E48007820F00F000C49087008460078EB
:1015800040F001000870022000F018F810BD0000C3
:10159000C602002004012142A002002074000020A5
:1015A0008D0200208C020020750200207B020020AA
:1015B00010B5102000F002F810BD000001490860CD
:1015C0007047000014040140014600200022074B30
:1015D0001B6803EA0102054B14331B680B4013B16F
:1015E0000AB1012000E00020704700000004014023
:1015F0002DE9F041024600250026002000230024AA
:10160000002791F803C00CF00F0591F803C00CF00F
:10161000100CBCF1000F03D091F802C04CEA050594
:1016200091F800C0BCF1000F31D0146800202BE00D
:101630004FF0010C0CFA00F3B1F800C00CEA0306FD
:101640009E4220D183004FF00F0C0CFA03F7BC43ED
:1016500005FA03FC4CEA040491F803C0BCF1280F1E
:1016600006D14FF0010C0CFA00FCC2F814C00AE0DD
:1016700091F803C0BCF1480F05D14FF0010C0CFAF2
:1016800000FCC2F810C0401C0828D1D31460B1F887
:1016900000C0BCF1FF0F34DD546800202EE000F1E3
:1016A000080C4FF0010808FA0CF3B1F800C00CEA7E
:1016B00003069E4221D183004FF00F0C0CFA03F772
:1016C000BC4305FA03FC4CEA040491F803C0BCF1E6
:1016D000280F05D100F1080C08FA0CF8C2F81480A4
:1016E00091F803C0BCF1480F07D100F1080C4FF08E
:1016F000010808FA0CF8C2F81080401C0828CED364
:101700005460BDE8F0810000F0B50A4600230024D3
:101710000021002500F00046B6F1004F02D11D4E19
:10172000F16901E01B4E7168C0F3034583B200F418
:101730004016B6F5401F08D121F07061154E76684D
:1017400026F07066134F7E6012E000F48016B6F546
:10175000801F06D1032606FA05F4A14341F070610B
:1017600006E0460D360103FA06F6B14341F070611A
:1017700022B1460D360103FA06F6314300F0004669
:10178000B6F1004F02D1034EF16101E0014E7160EC
:10179000F0BD0000000001400246002093680B40AD
:1017A0000BB1012000E000207047416170470161EA
:1017B000704700BFFEE700000FB410B502987D2807
:1017C0001DD19DF81300012819D19DF81400B0B95E
:1017D0009DF8150098B99DF8160080B99DF817007E
:1017E00068B99DF8180050B99DF8190038B99DF8EE
:1017F0001A0020B902201649087000F067F8029814
:101800007F2822D19DF8130001281ED19DF81410C5
:1018100010480068000E814217D19DF815000D494F
:101820000968C1F3074188420FD19DF816000949A4
:101830000988C1F30721884207D19DF8170005499F
:101840000978884201D101F003FB10BC5DF814FB5C
:10185000510000204C0000202DE9F04186B00546E3
:101860008846164600240195029500208DF80C004C
:101870008DF80D008DF80E6000BF06E018F804101A
:101880000DF10F000155601C84B2B442F6DB01A9D2
:101890000D48FEF757FF0746002401E0601C84B2A4
:1018A00039460948FEF7E2FF012803D040F6FF70F1
:1018B0008442F3DB40F6FF70844203DB012006B074
:1018C000BDE8F0810020FAE70064004008B502207E
:1018D00001230622812100907B2000F095FB08BDAA
:1018E00008B50121032000F0B5FA0121A648FFF751
:1018F0000BFF0121480200F0DDFA01211D2000F05C
:10190000D9FA4FF48050ADF8000004208DF80300A0
:1019100003208DF8020069469C48FFF769FE4FF4EA
:1019200080519A48FFF743FF4FF40050ADF8000094
:1019300004208DF8030003208DF8020069469448C6
:10194000FFF756FE4FF400519148FFF730FF4FF478
:101950000060ADF8000004208DF8030003208DF82E
:10196000020069468948FFF743FE4FF4006187484B
:10197000FFF71DFF4FF48040ADF8000004208DF804
:10198000030003208DF8020069468148FFF730FE0E
:101990004FF480417E48FFF70AFF4FF48070ADF8A6
:1019A000000004208DF8030003208DF80200694632
:1019B0007648FFF71DFE4FF480717448FFF7F7FE7D
:1019C0001020ADF8000004208DF8030003208DF8EE
:1019D000020069466D48FFF70BFE10216B48FFF7C8
:1019E000E6FE4FF40040ADF8000004208DF803003F
:1019F00003208DF8020069466648FFF7F9FD4FF4B1
:101A000000416448FFF7D3FE2020ADF80000042019
:101A10008DF8030003208DF8020069465B48FFF74C
:101A2000E7FD20215948FFF7C2FE4FF48040ADF892
:101A3000000004208DF8030003208DF802006946A1
:101A40005448FFF7D5FD4FF480415248FFF7AFFEF1
:101A50004020ADF8000004208DF8030003208DF82D
:101A6000020069464948FFF7C3FD40214748FFF798
:101A70009EFE4FF40050ADF8000004208DF80300E6
:101A800003208DF8020069464248FFF7B1FD4FF48C
:101A900000514048FFF78BFE8020ADF80000042085
:101AA0008DF8030003208DF8020069463748FFF7E0
:101AB0009FFD80213548FFF77AFE1020ADF8000029
:101AC00003208DF8020010208DF80300694631488C
:101AD000FFF78EFD10212F48FFF769FE2020ADF89B
:101AE000000003208DF8020010208DF803006946E5
:101AF0002848FFF77DFD20212648FFF756FE4020AD
:101B0000ADF8000003208DF8020010208DF80300CE
:101B100069462048FFF76CFD40211E48FFF747FE4D
:101B20004FF48070ADF8000003208DF80200102003
:101B30008DF8030069461748FFF75AFD4FF480718E
:101B40001448FFF734FE4FF40070ADF80000032096
:101B50008DF8020010208DF8030069460D48FFF74C
:101B600047FD4FF400710B48FFF71FFE01210648A7
:101B7000FFF7CAFD0121082000F09CF90121042093
:101B800000F098F908BD0000000230000008014094
:101B900000100140000C014010B5044614B10120B2
:101BA0006349087062480078002872D06148006874
:101BB000012834D060480068012830D05D48001FFB
:101BC000006801282BD05C48001D0068012826D041
:101BD000584810380068012821D05648203800683D
:101BE00001281CD055480068012818D051481C38DD
:101BF0000068012813D05148001F006801280ED04A
:101C00004C4818380068012809D04C48083800684A
:101C1000012804D0474814380068012856D10A200A
:101C200000F022FF00204249087042480068012865
:101C300000D110BD40480068012801D10220F8E71A
:101C40003C48001F0068012801D10320F1E73A4811
:101C5000001D0068012801D10420EAE7354810384A
:101C60000068012801D10520E3E7324820380068E8
:101C7000012801D10620DCE730480068012801D1A5
:101C80000720D6E72B481C380068012802D108201D
:101C9000CFE71BE02948001F0068012801D1092077
:101CA000C7E7244818380068012801D10A20C0E796
:101CB000224808380068012801D10B20B9E71D48E7
:101CC00014380068012831D10C20B2E719480068A7
:101CD00060BB1948006848BB1648001F006828BB55
:101CE0001548001D006808BB124810380068E8B9A4
:101CF000104820380068C8B910480068B0B90D48CD
:101D00001C38006890B90D48001F006870B9094878
:101D10001838006850B909480838006830B90548D3
:101D20001438006810B9012001490870002080E7CC
:101D30002E00002030012142340122423C81214208
:101D400070B506460D46144629466A2000F05AFE34
:101D500021466C2000F056FE70BD00BFFEE77047C4
:101D600070B5002100230F22C47804B3154C2468F9
:101D700004F4E064C4F5E064210AC1F10403CA403C
:101D8000447804FA03F184781440214309010E4C8D
:101D90000678A155047804F01F050124AC400578AD
:101DA0006D11AD0005F1E025C5F8004109E00478AA
:101DB00004F01F050124AC40044D0678761145F867
:101DC000264070BD0CED00E000E400E080E100E0A2
:101DD00002490143024A1160704700000000FA0501
:101DE0000CED00E00349096841EA8001014A1160F5
:101DF00070470000007000400A48006840F004008E
:101E0000084908600846006840F00200086006487B
:101E1000006840F004000449086000BF00BF30BF04
:101E2000704700000070004010ED00E001490860BC
:101E300070470000A0000E427047000001460020DD
:101E4000034A506820F44040084350607047000047
:101E50000010024029B1064A52690243044B5A61FC
:101E600004E0034A52698243014B5A617047000003
:101E70000010024029B1064AD2690243044BDA61DC
:101E800004E0034AD2698243014BDA6170470000E3
:101E90000010024029B1064A12690243044B1A613C
:101EA00004E0034A12698243014B1A617047000043
:101EB0000010024029B1064A92690243044B9A611C
:101EC00004E0034A92698243014B9A617047000023
:101ED0000010024029B1064AD2680243044BDA607E
:101EE00004E0034AD2688243014BDA607047000085
:101EF0000010024030B500210022002400232D4DA7
:101F00006D6805F00C0121B1042905D0082923D101
:101F100005E0294D056022E0274D05601FE0254DB5
:101F20006D6805F47012234D6D6805F48034022548
:101F300005EB92421CB9214D554305600BE01D4D48
:101F40006D6805F400351DB11C4D5543056002E078
:101F5000194D5543056002E0174D056000BF00BFF5
:101F6000144D6D6805F0F0010909154D6B5C0568AD
:101F7000DD4045600F4D6D6805F4E061090A104DC4
:101F80006B5C4568DD4085600A4D6D6805F4605105
:101F9000C90A0B4D6B5C4568DD40C560054D6D6839
:101FA00005F44041890B074D6B5CC568B5FBF3F543
:101FB000056130BD0010024000127A0000093D00AA
:101FC0002503002035030020704700000FB40B4AA2
:101FD000009911609DF8081051B9002006E00DF13C
:101FE0000B01095C064A1154411CC8B20828F6DBF3
:101FF0000121044A117004B0704700003400002031
:102000003C030020310000202DE9FC4107460C462E
:1020100015461E46DDF820800020009001901748EC
:102020000078012803D1FF201549086003E0154816
:102030000078134908608DF8004011480068000ED0
:102040008DF801000E480068000C8DF802000C4865
:102050000088000A8DF80300094800788DF8040014
:102060008DF805508DF806608DF8078008226946C6
:102070003846FFF7F1FBBDE8FC810000500000206E
:102080004C0000202400002010B500F001F810BD25
:102090000CB50020019000903348006840F4803077
:1020A0003149086000BF3048006800F400300090FB
:1020B0000198401C0190009818B90198B0F5A06FE4
:1020C000F1D12948006800F4003010B101200090DF
:1020D00001E0002000900098012843D123480068C7
:1020E00040F01000214908600846006820F0030015
:1020F00008600846006840F0020008601A4840681E
:10210000194948600846406848600846406840F4FD
:10211000806048600846406820F47C1048600846AB
:10212000406840F4E81048600846006840F080705D
:10213000086000BF0C48006800F000700028F9D06B
:102140000948406820F00300074948600846406895
:1021500040F00200486000BF0348406800F00C00F7
:102160000828F9D10CBD00000010024000200240F8
:1021700010B508210C48FFF71AFB00F063FE4FF47E
:1021800000410A48FFF713FB00F05CFE4FF40041EA
:102190000648FFF70AFB00F055FE08210248FFF74A
:1021A00004FB00F04FFE10BD000C01400008014090
:1021B00010B54FF400410948FFF7F7FA00F042FE6E
:1021C00008210748FFF7F3FA00F03CFE4FF4004106
:1021D0000248FFF7ECFA00F035FE10BD00080140A0
:1021E000000C0140042808D14FF0E021096941F0BA
:1021F00004014FF0E022116107E04FF0E02109698E
:1022000021F004014FF0E02211617047144800886A
:10221000401C1349088008460088B0F57A7F0FDB20
:10222000002008800F480088401C0E49088008469E
:1022300000884FF6FF71884202DB002009490880C0
:1022400009480088401C084908800846008842F276
:102250001071884202DB00200349088070470000AB
:10226000FC020020FE0200200C00002010B51348E4
:10227000006840F0010011490860084640681049B4
:1022800008400E494860084600680E4908400B495E
:1022900008600846006820F480200860084640680E
:1022A00020F4FE0048604FF41F008860FFF7ECFE4A
:1022B0004FF000600449086010BD000000100240AB
:1022C0000000FFF8FFFFF6FE08ED00E02DE9F04703
:1022D0003749488801F0AAF905462946354801F0F2
:1022E000E3F80446344901F0E9F93449086130491A
:1022F000088801F09BF982462F4901F0D5F8814604
:102300002E480169484601F0D9F9044601F032F837
:10231000074600224FF0804300F02EFF054600F0F4
:10232000B1FE2649C860C86801F024F804460022BE
:10233000234B00F0E5FE05D20C20224908700F2047
:10234000214908701D490869204901F083F924D208
:102350001A484068401C1949486008464068B0F572
:102360007A7F1DDB012088700020194908700C203D
:10237000144908700F20144908704FF496600F49F3
:102380004860144B104C24781A5D0E4C2478195D6B
:10239000114B5878FFF7D4FC02E000200749486051
:1023A00000F0F4FB0121880700F018F8BDE8F08781
:1023B000E00200209A99993F00F07F45CC0200206E
:1023C00000000C407802002079020020000040400C
:1023D000000000203F02002035020020CA43028294
:1023E000704721B1028842F00102028004E00288B5
:1023F0004FF6FE731A400280704702460020138A8F
:102400000B400BB1012000E0002070471AB1838916
:102410000B43838102E083898B43838170470000F3
:10242000002202881D4B98420ED01D4B98420BD0C3
:10243000B0F1804F08D01B4B984205D01A4B984200
:1024400002D01A4B984204D14FF68F731A404B8832
:102450001A43174B984207D0164B984204D04FF6B8
:10246000FF431A40CB881A4302808B8883850B88F0
:1024700003850A4B98420BD0094B984208D00E4B6B
:10248000984205D00D4B984202D00D4B984201D195
:102490000B7A03860123838270470000002C0140E1
:1024A000003401400004004000080040000C0040DF
:1024B0000010004000140040004001400044014072
:1024C0000048014008B501210C20FFF7F3FC4FF450
:1024D0000040ADF8000010208DF8030003208DF8B7
:1024E000020069460848FFF783F80820ADF80000AD
:1024F00010208DF8030003208DF802006946034880
:10250000FFF776F808BD000000080140000C01400C
:1025100070B5044600252BE008211F48FFF745F958
:1025200000F090FC04F0800028B14FF400411B48FB
:10253000FFF73DF904E04FF400411848FFF735F983
:1025400000F080FC08211448FFF731F900F07AFC14
:1025500008211148FFF729F900F074FC6006040E09
:1025600008210D48FFF721F900F06CFC681CC5B28A
:10257000082DD1DB4FF400410848FFF716F900F0B1
:1025800061FC08210448FFF712F900F05BFC082108
:102590000148FFF70AF970BD000C01400008014036
:1025A00010B508211548FFF702F94FF4004114480F
:1025B000FFF7FDF8FFF7DCFD4420FFF7A9FFFFF769
:1025C000F7FDFFF7D5FD8F20FFF7A2FFFFF7F0FD26
:1025D0003121482000F016FA3121482000F012FA8B
:1025E0000021682000F00EFA00216A2000F00AFAAB
:1025F00000216C2000F006FA10BD0000000C014024
:102600000008014010B540F225511F4800F00FF9B5
:1026100030B31D4800F0C6F9C4B221461B4800F093
:10262000C6F91B48008800F40040C8B91848008863
:1026300000F4804060B10A2C03D0002014490880C7
:1026400020E01348008840F400401149088019E058
:102650000D2C06D10E48008840F480400C490880BB
:1026600010E00B480088C0F30D000A490C540848DC
:102670000088401C0649088008460088C72801DDFC
:102680000020088010BD00000038014000440040D8
:1026900010030020A003002010B540F22551264869
:1026A00000F0C5F8002846D0234800F07BF9234904
:1026B000087008460178224800F079F9214800881E
:1026C00000F4004088BB1F48008800F4804070B1CF
:1026D0001A4800780A2803D000201A49088024E00C
:1026E0001848008840F40040164908801DE013484F
:1026F00000780D2806D11348008840F48040114925
:10270000088012E00D4800780E490988C1F30D01D8
:102710000D4A50540B480088401C0A49088008465E
:102720000088C72801DD00200880012240F22551E1
:10273000014800F0A6F810BD00440040240300202A
:102740000038014010030020A003002001F40072B3
:10275000B2F5007F00D100BFCA430280704721B1AB
:10276000828942F40052828104E082894DF6FF732F
:102770001A4082817047000010B504462048844208
:1027800009D101218803FFF7A5FB00214FF4804008
:10279000FFF7A0FB32E01B48844209D10121480425
:1027A000FFF778FB00214FF40030FFF773FB25E0C3
:1027B0001548844209D101218804FFF76BFB0021F1
:1027C0004FF48020FFF766FB18E01048844209D1DF
:1027D0000121C804FFF75EFB00214FF40020FFF742
:1027E00059FB0BE00A48844208D101210805FFF794
:1027F00051FB00214FF48010FFF74CFB10BD00008F
:10280000003801400044004000480040004C0040B7
:102810000050004002460020B1F5007F00D100BF0B
:1028200013880B400BB1012000E00020704770B509
:102830000246002400230025002040F66A16B1421B
:1028400000D100BFC1F3421501F01F03012606FAB3
:1028500003F3012D02D19689334006E0022D02D107
:10286000168A334001E0968A33400C12012606FA9C
:1028700004F41688344013B10CB1012000E00020AC
:1028800070BDF0B50346002400260025002040F668
:102890006A17B94200D100BF1846C1F3421401F0D3
:1028A0001F06012707FA06F5012C01D10C3004E0C0
:1028B000022C01D1103000E014301AB107682F4308
:1028C000076002E00768AF430760F0BD2DE9F047FD
:1028D00086B005460E460024A24600BFA14600274A
:1028E000B08900B100BF2F462C8A4CF6FF7004401F
:1028F000F08804432C82AC894EF6F3100440B08873
:1029000031890843718908430443AC81AC8A4FF68E
:10291000FF400440B0890443AC8201A8FFF7EAFA03
:102920001F48874202D1DDF810A001E0DDF80CA0BD
:10293000A88900F4004040B10AEBCA0000EB0A107D
:1029400031684900B0FBF1F807E00AEBCA0000EB80
:102950000A1031688900B0FBF1F86420B8FBF0F090
:1029600004012009642101FB1089A88900F40040BA
:1029700040B1322000EBC900B0FBF1F000F00700DD
:10298000044308E0322000EB09106421B0FBF1F0B1
:1029900000F00F0004432C8106B0BDE8F087000072
:1029A0000038014001468888C0F308007047C1F331
:1029B000080282807047000000B587B002AA00219B
:1029C0000C48FDF747FE0698009002A80FC8FEF7D6
:1029D000F3FE0698009002A80FC8FFF7F7FAFDF77C
:1029E00095FF01200449087000200449088007B0C1
:1029F00000BD000000640040380000203A000020C4
:102A000000BFFEE770B505460C46FFF7B1FB284650
:102A1000FFF77EFD2046FFF77BFDFFF7C9FB70BD8A
:102A200000BF704710B56FF00400FFF7DBFB0A48EA
:102A300000680A49B0FBF1F00949087008460078BF
:102A400000EB4001C1EBC0104FF6FF7101EAC0007E
:102A50000449088010BD00001000002000127A0018
:102A6000F8020020FA0200200146114A12884A4367
:102A70004FF0E0235A6100229A611A46126942F02F
:102A800001021A6100BF4FF0E022106900F001025C
:102A90001AB100F48032002AF5D04FF0E02212691A
:102AA00022F001024FF0E0231A6100229A61704780
:102AB000FA0200200146114A12784A434FF0E023FF
:102AC0005A6100229A611A46126942F001021A61A3
:102AD00000BF4FF0E022106900F001021AB100F4CB
:102AE0008032002AF5D04FF0E022126922F0010274
:102AF0004FF0E0231A6100229A617047F80200202B
:102B00004FF4A060FFF764F9FFF78CFFFEF7E8FED3
:102B100000201A490880FFF7D5FCFFF741FD4FF46C
:102B2000E13000F04BFA4FF4E13000F0EDF940F203
:102B3000CF21632000F0ACF9FEF76EFCFDF7E8FC56
:102B400001210807FFF796F916E0FEF7D1FC0C49C2
:102B500088680C4900F07EFE0ED801210807FFF7B7
:102B600089F90120FFF73EF90120FFF75FF9FFF730
:102B700043F9054802498860E7E700004600002065
:102B8000CC0200200060EA478062EA4770B58AA460
:102B900093A59EA601218807FFF72FFC01286ED17F
:102BA000A348807820B90020FEF7F6FFA1490870FD
:102BB000A04800780D2877D2DFE800F0070D19252E
:102BC000394D62778B9CADBECF004FF480719A482F
:102BD000FDF71BFBD3E096484078401C94494870B1
:102BE00008464078082801DD08204870C7E0904872
:102BF0004078401E8E49487008464078012801DA26
:102C000001204870BBE0AA208B490870552048700D
:102C10000320887086484078C8700320087110200F
:102C2000834908700521844800F060F9A7E0AA20D4
:102C30008149087055204870032088707C4840788E
:102C4000C870042008710F207949087005217A485E
:102C500000F04CF993E0AA2077490870552048709D
:102C60000320887072484078C870052008710320DE
:102C70006F4908700521704800F038F97FE099E04D
:102C8000AA206D4908705520487003208870684854
:102C90004078C87006200871042065490870052135
:102CA000654800F023F96AE068E0AA2062490870EC
:102CB00055204870032088705D484078C870072010
:102CC000087105205A49087005215B4800F00EF98B
:102CD00055E0AA2058490870552048700320887094
:102CE00053484078C870082008710521524800F008
:102CF000FDF844E0AA205049087055204870032090
:102D000088704B484078C8700820087105214A48EF
:102D100000F0ECF833E0AA204749087055204870CD
:102D20000320887042484078C87008200871052147
:102D3000414800F0DBF822E0AA203F490870552006
:102D40004870032088703A484078C870082008719D
:102D50000521394800F0CAF811E0AA203649087068
:102D6000552048700320887031484078C87008208A
:102D700008710521304800F0B9F800E000BF00BF3D
:102D80002B4800782D490870294840782C49087054
:102D90002848007840B9264988684FF07E5100F0F5
:102DA00015FB2349886005E02248007810B1002017
:102DB0001F49886070BD000041542B43574A415061
:102DC0003D225265646D694C5754222C22313233B6
:102DD0003435363738222C22732E79220D0A000022
:102DE00041542B43574A41503D2258484354455380
:102DF00054222C2274657374363636363838383897
:102E0000222C22732E79220D0A00000041542B43FC
:102E1000574A41503D226464222C2264643636367F
:102E20003638383838222C22732E79220D0A0000C9
:102E3000CC02002000000020580A00207802002068
:102E40007902002010B53220FFF734FE10BD0000DB
:102E50004FF6FF7100E000BF081EA1F10101FAD199
:102E6000012080F3138800BF00BF0748006800F40A
:102E7000E060064A1043001D034A1060BFF34F8F05
:102E800000BF00BFFEE700000CED00E00000FA0507
:102E90007FB505460C4601210846FEF7EBFFADF86D
:102EA0000850ADF804400020ADF80A00ADF8060067
:102EB00001A94FF08040FFF7B3FA012211469007B5
:102EC000FFF7A4FA01218807FFF78BFA1C208DF881
:102ED000000001208DF8010002208DF80200012081
:102EE0008DF803006846FEF73BFF7FBD70B50546D1
:102EF0000E46002404E0285D00F0B0F8601C84B2A7
:102F0000B442F8DB70BD000010B586B00446012164
:102F10004804FEF7AFFF01210420FEF7CBFF254850
:102F2000FFF72AFC0420ADF8140003208DF81600EA
:102F300018208DF8170005A91F48FEF759FB082037
:102F4000ADF8140003208DF8160004208DF817004A
:102F500005A91948FEF74CFB01940020ADF80800C4
:102F6000ADF80A00ADF80C00ADF810000C20ADF87B
:102F70000E0001A90F48FFF7A9FC012240F22551DC
:102F80000C48FFF77EFC01210A48FFF7E8FB4FF4ED
:102F9000E060FEF71DFF26208DF8000000208DF870
:102FA000020001208DF803006846FEF7D9FE06B046
:102FB00010BD0000004400400008014010B586B07C
:102FC0000446012144F20400FEF774FF4FF4007040
:102FD000ADF8140003208DF8160018208DF81700A6
:102FE00005A91C48FEF704FB4FF48060ADF81400FF
:102FF00004208DF8170005A91648FEF7F9FA2520D8
:103000008DF8000003208DF801008DF802000120EA
:103010008DF803006846FEF7A3FE01940020ADF88A
:103020000800ADF80A00ADF80C00ADF810000C2057
:10303000ADF80E0001A90848FFF748FC012240F254
:1030400025510548FFF71DFC01210348FFF787FBC9
:1030500006B010BD000801400038014010B504461C
:1030600021460748FFF7A3FC00BF80210448FFF773
:10307000D1FB0128F9D140210148FFF767FB10BDC2
:103080000044004021F00042A2F16052B2F5801FDE
:1030900001F0004328BFD2F17F6C0BD95FEA001C1E
:1030A00043EAC20242EB507018BF704728BF20F0BD
:1030B00001007047B2F5801FBCBF184670474FEA49
:1030C000410C1CF5001F02D2084600F0BEBB70B5D3
:1030D00000F0FCF800000089FFF7F6BF4FF0004059
:1030E000A0F580007047491058BFC1F140415B1006
:1030F00058BFC3F140438B42EFF30080704700009C
:1031000051EA030C17D41CF5801F58BFBCF5801F73
:1031100000F10680994218BF704708BF904270477F
:1031200007D711F5801F58BF13F5801F19D4994296
:103130007047894270471CF5801F08D5BCF5801F79
:10314000F7D58B4218BF704708BF824270474FF4D3
:10315000001C1CEB410F38BF1CEB430F01D28B420C
:10316000704770B500F0B2F8922449004FF000515A
:103170004FF08053FFF7B7BFDFF848C170B51CEAC6
:10318000111E1EBF1CEA13159EEA0C0F95EA0C0FC8
:1031900000F06F8081EA030423EA4C134EEAD47EE8
:1031A00021EA4C1141F4801143F48013AE44A1FB99
:1031B000024CA0FB0365AEF17F7E361955EB0C0582
:1031C000A1FB034C4CF10003A0FB021C16EB0C0608
:1031D000654153F10003094218BF46F0010613F49C
:1031E000007F0BD14FEA03314FEA0530340341EA47
:1031F000155140EA16506FF003020AE04FEAC3216E
:103200004FEAC520F40241EA555140EA56506FF0AA
:10321000020202EB2E4201EB025585EACE710AD082
:103220005FEA440C18BF24F0004450F1000041F163
:10323000000120EAD47040F2FE7C624500D270BDED
:10324000A84214BF4FF080444FF04044002E08BF06
:103250000024BEF1806FA8BFA1F1C041BDE870405D
:1032600080F282804FF0000001F1C04101F0004186
:1032700070479EEA0C0F0CEA131518BF95EA0C0F65
:1032800006D04FF0000081EA030E0EF0004170BD41
:1032900000F01CF88900013E00F007B800F009B802
:1032A0004FEA430C5FEA5C5C08D081EA030100F05E
:1032B0005BB84FEA410C5FEA5C5CF6D14FF000006E
:1032C000014970470000FF070000F87F0EF1020E71
:1032D0002EF0030E5EF8046B364205D4012A43EB50
:1032E000030515F5001F12D8012841EB010C1CF550
:1032F000001F0CD80ED14FEAD17C15F5001F0CEB46
:103300004C0C0CF1020C08BF4CEBD37C04E04FF0EA
:10331000080C01E04FEAD37C0CEB4C0526FA05F6CD
:1033200006F00706B6F1040C06D20EEB860CBDE8DB
:1033300070404CF0010C6047DFE80CF0090B020212
:103340004FF000414FF00000A1F5002170BD19467B
:103350001046012851EB010418BFD4F5001484BFB6
:10336000002001F0004170BD0808A0F500114FEAEF
:103370003101704743004FEAD30C4FEA3C0C434005
:103380001FBF40070CF1605113F0FE4F70471CF057
:10339000006F03D100200CF0004170470CF0004397
:1033A00043EA507010B540EACC0000F008FA00BFC4
:1033B000000000924FEA0001FFF7D6BF4FF0004136
:1033C0004FF00000A1F500217047000090EA010FC6
:1033D00048BF81F0004100F17682421A3CBF801A5A
:1033E00089184FEAD0524FF07F4C1CEA410FA2EBF4
:1033F000D15318BF9CEA026F00F03B804FF0004CA5
:103400004CEA00204CEA012121FA03FC10EB0C0CE1
:103410001ED202F1FF325FEA1C2040EBC25038BFDF
:1034200070471CF07F0F4FEA400C18BFBCF17F4F74
:1034300038BF7047C3F12003994008BF20F0010056
:10344000BCF17F4F38BF7047A0F1C04000F0FDB91C
:103450004FEA3C00000A40EBC25028BF1CF0FF0FAF
:103460004FEA400CE6D018BFBCF17F4F38BF704721
:10347000EAE79CEA026F05D010EA5C0F08BF00F093
:103480000040704710B500F09AF900BF64FBBE3EE3
:10349000401058BFC0F14040491058BFC1F14041F1
:1034A0008142EFF3008070474FF47F0C1CEAD0128A
:1034B0001EBF1CEAD11392EA0C0F93EA0C0F00F026
:1034C000858090EA010F48BF42F4807240F4000CFE
:1034D00041F400002CF07F4120F07F4000B5814294
:1034E000A2EB03020FF2081CACEB504EC0F100003F
:1034F0009EF800E04FEA4E0E00FB0EFC38BF49007C
:103500004FEA2C1C02F5FA020CFB0EF34FEACE1E1A
:103510004FEA112C4FEAC1210EEB635E42EB2242CF
:103520000EFB0CFC4FEA1C5300FB03114FEA112C5D
:103530004FEA01310EFB0CFC4FEADC4C00FB0C1196
:10354000C14228BF09184CEB03335DF804EB10EBC4
:10355000410143EBC250B2F57C0F38BF704729D50B
:1035600012F0F00F1CBF00F1C04000F000407047A7
:10357000008182838485868788898B8C8D8E8F914C
:103580009293959697999A9C9D9FA0A2A3A5A7A870
:10359000AAACAEB0B2B3B5B7B9BCBEC0C2C5C7C99C
:1035A000CCCED1D4D7D9DCDFE2E6E9ECF0F3F7FA00
:1035B000FE0000004FEA400C0CF1807CBCF17E4F15
:1035C00028BF7047B0F1C04000F03FB990EA010F4A
:1035D0000CEAD11348BF42F48072624538BF63459C
:1035E00007D213F47F0F16D080EA010000F00040EC
:1035F000704710B500F0E3F8097EFC3E00F005B816
:1036000080EA010000F00040704780EA010000F00D
:10361000004000F01AB912F47F0F04BF024870474F
:1036200080EA010000F011B90000C07FB0FA80F319
:1036300010FA03F2C3F19D030AD0D90501EB122061
:10364000530638BF704700F1010008BF20F00100A9
:103650007047000050EA010C00F113801CF5000FC8
:1036600058BFBCF5000F01D48842704707D710F54A
:10367000000F58BF11F5000F15D4884270478942DA
:1036800070471CF5000F04D5BCF5000FF7D581423B
:1036900070474FF0807C1CEB400F38BF1CEB410F94
:1036A00001D28142704710B500F089F89224490098
:1036B0004FF000504FF08051FFF7EABE4FF47F0CFF
:1036C0001CEAD0121EBF1CEAD11392EA0C0F93EA37
:1036D0000C0F00F0478090EA010F48BF42F480725F
:1036E0004FF0004C4CEA00204CEA012102EB0302AF
:1036F000A0FB0113A2F50002002918BF43F001034B
:103700005B0028BF4FEA330342EB22425FEA132CEF
:103710004CEBC2502EBFBCEB436FB2F57C0F704731
:103720004FEA036CBCF1004F08BF20F00100B2F576
:103730007C0F38BF70470BD582F0FF0212F5803F37
:10374000C8BF704700F1C040D8BF00F000407047CC
:1037500000F5000C5FEA4C0C48BF7047B0F1C04068
:1037600000F073B890EA010F0CEAD11348BF42F49D
:103770008072624538BF634504D280EA010000F0E0
:103780000040704710B500F01AF800BF8900013EF4
:1037900000F007B800F009B85FEA410C5FEA1C6C62
:1037A00008D080EA010000F050B85FEA400C5FEA00
:1037B0001C6CF6D14FF00040A0F5800070470EF170
:1037C000020E2EF0030E5EF8044B244204D44FEA9E
:1037D0004102B2F17F4F11D84FEA4003B3F17F4F5E
:1037E0000CD80ED14FEAD07CB2F17F4F0CEB4C0CD1
:1037F0000CF1020C08BF4CEBD17C04E04FF0080C3C
:1038000001E04FEAD17C0CEB4C0324FA03F404F002
:103810000704B4F1040C06D20EEB840CBDE8104092
:103820004CF0010C6047DFE80CF0070802024FF093
:103830000040A0F5800010BD0846420018BFD2F13C
:10384000807288BF00F0004010BDFF2141EAD050D7
:10385000C005704751EA000C00F113801CF5000F01
:1038600058BFBCF5000F01D48142704707D711F54E
:10387000000F58BF10F5000F15D4814270478942E0
:1038800070471CF5000F04D5BCF5000FF7D5884232
:1038900070474FF0807C1CEB410F38BF1CEB400F92
:1038A00001D28842704780EA010081EA000180EA83
:1038B0000100FFF7F8BE000090EA010F48BF81F059
:1038C00000413FF58AAD421A04D882F00042A0EBD5
:1038D000020011444FEAD0524FF07F4C1CEA410FD6
:1038E000A2EBD15318BF9CEA026F4AD04FF0004CB4
:1038F0004CEA00204CEA012121FA03FCB0EB0C0C4D
:103900000FD412F0FE0F36D05FEA4C001DD5001226
:1039100040EBC25038BF70471CF03F0F18BF7047D4
:103920000BE0A2F101025FEA1C2040EBC25038BF5D
:1039300070471CF07F0F18BF7047C3F120039940F8
:1039400014BF401E20F00100704780084FEA122388
:1039500008BF7047B0FA80FCA2EB0C02CCF1280C37
:1039600060FA0CF093EA122F04BF00EBC2507047CC
:103970004FEAC3707047130A5FEADC1008BF704754
:10398000F6E79CEA026F04D010EA5C0F08BF002043
:10399000704710B5FFF713FF40DFF63E81F000409F
:1039A00070470000C4390008000000203C030000FC
:1039B00028010008EC3A00083C0300208C1C0000A1
:1039C00084010008011184A24A04A0090102030431
:1039D00006070809021001F91101271BF010012A3E
:1039E000FF050215F01B0F04012AFF0502130F1833
:1039F000094040405F55555575041A5F0C09112167
:103A0000080C11200F094989790909090F201F1194
:103A10002FFE02424ACA4A0304134202FE000E1459
:103A2000FF40504C4340404F50505C40FF1BF888D3
:103A3000012AFF050215F81B1F08012A7F200B1021
:103A40009F80E23B808201000916E2A2928A868270
:103A50008080041840807F172424A4FEA3221B2208
:103A6000CCAA011415080601FF2B0104010511FF62
:103A70000202025808101010FF109008C30211082B
:103A8000080F100444827F01808040432C10284698
:103A900081A0100B3F065B4F666D7D077F6F001B9B
:103AA0003B777C395E79713D760F0E753837545C03
:103AB00073673149783E1C7E646E59022C0F124D9B
:103AC0001C0C0B010631021C01C00B2041CDCCCCDB
:103AD0003C6F12833A0A190134BA64292C02030498
:0C3AE0000430090607080902040608006B
:04000005080000ED02
:00000001FF
